{
  "contractName": "Gallery",
  "abi": [
    {
      "inputs": [],
      "stateMutability": "nonpayable",
      "type": "constructor"
    },
    {
      "inputs": [],
      "name": "name",
      "outputs": [
        {
          "internalType": "string",
          "name": "",
          "type": "string"
        }
      ],
      "stateMutability": "view",
      "type": "function"
    },
    {
      "inputs": [
        {
          "internalType": "string",
          "name": "title",
          "type": "string"
        },
        {
          "internalType": "string",
          "name": "imageMetaDataUrl",
          "type": "string"
        }
      ],
      "name": "store",
      "outputs": [],
      "stateMutability": "nonpayable",
      "type": "function"
    },
    {
      "inputs": [],
      "name": "retrieveAllImages",
      "outputs": [
        {
          "components": [
            {
              "internalType": "string",
              "name": "title",
              "type": "string"
            },
            {
              "internalType": "string",
              "name": "imageMetaDataUrl",
              "type": "string"
            }
          ],
          "internalType": "struct Gallery.Image[]",
          "name": "",
          "type": "tuple[]"
        }
      ],
      "stateMutability": "view",
      "type": "function"
    },
    {
      "inputs": [],
      "name": "retrieveImagesByAuthor",
      "outputs": [
        {
          "components": [
            {
              "internalType": "string",
              "name": "title",
              "type": "string"
            },
            {
              "internalType": "string",
              "name": "imageMetaDataUrl",
              "type": "string"
            }
          ],
          "internalType": "struct Gallery.Image[]",
          "name": "",
          "type": "tuple[]"
        }
      ],
      "stateMutability": "view",
      "type": "function"
    }
  ],
  "bytecode": "0x608060405234801561001057600080fd5b506040805180820190915260178082527f44617070204e6f2d436f756e7472792047616c6c65727900000000000000000060209092019182526100559160019161005b565b5061012f565b828054610067906100f4565b90600052602060002090601f01602090048101928261008957600085556100cf565b82601f106100a257805160ff19168380011785556100cf565b828001600101855582156100cf579182015b828111156100cf5782518255916020019190600101906100b4565b506100db9291506100df565b5090565b5b808211156100db57600081556001016100e0565b600181811c9082168061010857607f821691505b6020821081141561012957634e487b7160e01b600052602260045260246000fd5b50919050565b6108088061013e6000396000f3fe608060405234801561001057600080fd5b506004361061004c5760003560e01c806306fdde03146100515780631ee896761461006f57806388bb202214610084578063f641090c1461008c575b600080fd5b6100596100a1565b60405161006691906105f1565b60405180910390f35b61007761012f565b604051610066919061060b565b6100776102bd565b61009f61009a366004610733565b610437565b005b600180546100ae90610797565b80601f01602080910402602001604051908101604052809291908181526020018280546100da90610797565b80156101275780601f106100fc57610100808354040283529160200191610127565b820191906000526020600020905b81548152906001019060200180831161010a57829003601f168201915b505050505081565b336000908152600260209081526040808320805482518185028101850190935280835260609492939192909184015b828210156102b4578382906000526020600020906002020160405180604001604052908160008201805461019190610797565b80601f01602080910402602001604051908101604052809291908181526020018280546101bd90610797565b801561020a5780601f106101df5761010080835404028352916020019161020a565b820191906000526020600020905b8154815290600101906020018083116101ed57829003601f168201915b5050505050815260200160018201805461022390610797565b80601f016020809104026020016040519081016040528092919081815260200182805461024f90610797565b801561029c5780601f106102715761010080835404028352916020019161029c565b820191906000526020600020905b81548152906001019060200180831161027f57829003601f168201915b5050505050815250508152602001906001019061015e565b50505050905090565b60606000805480602002602001604051908101604052809291908181526020016000905b828210156102b4578382906000526020600020906002020160405180604001604052908160008201805461031490610797565b80601f016020809104026020016040519081016040528092919081815260200182805461034090610797565b801561038d5780601f106103625761010080835404028352916020019161038d565b820191906000526020600020905b81548152906001019060200180831161037057829003601f168201915b505050505081526020016001820180546103a690610797565b80601f01602080910402602001604051908101604052809291908181526020018280546103d290610797565b801561041f5780601f106103f45761010080835404028352916020019161041f565b820191906000526020600020905b81548152906001019060200180831161040257829003601f168201915b505050505081525050815260200190600101906102e1565b6040805180820190915282815260208082018390526000805460018101825590805282518051849360029093027f290decd9548b62a8d60345a988386fc84ba6bc95484008f6362f93160ef3e563019261049592849291019061050b565b5060208281015180516104ae926001850192019061050b565b50503360009081526002602081815260408320805460018101825590845292819020855180518796509490930201926104ea928492019061050b565b506020828101518051610503926001850192019061050b565b505050505050565b82805461051790610797565b90600052602060002090601f016020900481019282610539576000855561057f565b82601f1061055257805160ff191683800117855561057f565b8280016001018555821561057f579182015b8281111561057f578251825591602001919060010190610564565b5061058b92915061058f565b5090565b5b8082111561058b5760008155600101610590565b6000815180845260005b818110156105ca576020818501810151868301820152016105ae565b818111156105dc576000602083870101525b50601f01601f19169290920160200192915050565b60208152600061060460208301846105a4565b9392505050565b60006020808301818452808551808352604092508286019150828160051b87010184880160005b8381101561068257888303603f1901855281518051878552610656888601826105a4565b91890151858303868b015291905061066e81836105a4565b968901969450505090860190600101610632565b509098975050505050505050565b634e487b7160e01b600052604160045260246000fd5b600082601f8301126106b757600080fd5b813567ffffffffffffffff808211156106d2576106d2610690565b604051601f8301601f19908116603f011681019082821181831017156106fa576106fa610690565b8160405283815286602085880101111561071357600080fd5b836020870160208301376000602085830101528094505050505092915050565b6000806040838503121561074657600080fd5b823567ffffffffffffffff8082111561075e57600080fd5b61076a868387016106a6565b9350602085013591508082111561078057600080fd5b5061078d858286016106a6565b9150509250929050565b600181811c908216806107ab57607f821691505b602082108114156107cc57634e487b7160e01b600052602260045260246000fd5b5091905056fea2646970667358221220475ea71ca938900cc338547a17ccad16d0c2466688c2998edd9be67d019295e264736f6c63430008090033",
  "immutableReferences": {},
  "source": "// SPDX-License-Identifier: MIT\r\npragma solidity >=0.7.0 <0.9.0;\r\n\r\ncontract Gallery {\r\n    Image[] private images;\r\n    string public name;\r\n    mapping(address => Image[]) private authorToImages;\r\n\r\n    struct Image {\r\n        string title;\r\n        string imageMetaDataUrl;\r\n    }\r\n\r\n    constructor() {\r\n        name = \"Dapp No-Country Gallery\";\r\n    }\r\n\r\n    function store(string memory title, string memory imageMetaDataUrl) public {\r\n        Image memory image = Image(title, imageMetaDataUrl);\r\n\r\n        images.push(image);\r\n        authorToImages[msg.sender].push(image);\r\n    }\r\n\r\n    function retrieveAllImages() public view returns (Image[] memory) {\r\n        return images;\r\n    }\r\n\r\n    function retrieveImagesByAuthor() public view returns (Image[] memory) {\r\n        return authorToImages[msg.sender];\r\n    }\r\n}\r\n",
  "sourcePath": "C:\\Users\\jcda_\\Desktop\\PROYECTO FINAL BINANCE\\s8-01-t-java-angular-binance\\binance-clone\\contracts\\Gallery.sol",
  "compiler": {
    "name": "solc",
    "version": "0.8.9+commit.e5eed63a.Emscripten.clang"
  },
  "schemaVersion": "3.4.14",
  "updatedAt": "2023-06-05T05:57:16.105Z",
  "devdoc": {
    "kind": "dev",
    "methods": {},
    "version": 1
  },
  "userdoc": {
    "kind": "user",
    "methods": {},
    "version": 1
  }
}